:020000040000FA
:100000000201692000FDD2007510A0C204D202D204
:1000100001D2038F118D12750D00750E00750F162C
:10002000750901D2C52000FDAF1622AF885388AFF5
:10003000EF5440FEEF54104E428822020076C10574
:10004000011800C106C1000139001821000000AAF2
:10005000000000BB000000CC000000DD000000EE4E
:10006000000000FF0053C17F43C18053917FC20055
:0200700032223A
:10007300020065C0E0C083C082C0D075D000C0015B
:10008300C002C003E5C054F02480700302011224AF
:10009300C0601B24E060030201438510C253C2FE0B
:1000A300A204E43342C2C2C575170002014530C140
:1000B30053300607D2C5C206020145300219E518BE
:1000C300600EC2028512C2300178D206D204807259
:1000D3008511C20518806B200468E517C395095084
:1000E3001AAB0AAA0BA90C1201F8F5C27401250C6C
:1000F300F50CE4350BF50B05178047D2C4C2007528
:100103001800803E300304D2C58037D2058033E522
:1001130017C39509501AAB0DAA0EA90FE5C2120217
:10012300117401250FF50FE4350EF50E0517D2C135
:10013300E517B5090DC200C2C1751800D2C480020B
:10014300D20530051053C17F43C180C2C5C2C4C2AA
:10015300C1C200C205C2C0D003D002D001D0D0D0EA
:1001630082D083D0E032120071787FE4F6D8FD7537
:1001730081540201B3020328E493A3F8E493A34058
:1001830003F68001F208DFF48029E493A3F854070F
:10019300240CC8C333C4540F4420C8834004F4560A
:1001A300800146F6DFE4800B010204081020408042
:1001B30090003EE47E019360BCA3FF543F30E50909
:1001C300541FFEE493A360010ECF54C025E060A842
:1001D30040B8E493A3FAE493A3F8E493A3C8C582D5
:1001E300C8CAC583CAF0A3C8C582C8CAC583CADF43
:1001F300E9DEE780BEBB010689828A83E0225002E2
:10020300E722BBFE02E32289828A83E49322BB01B5
:100213000689828A83F0225002F722BBFE01F32271
:10022300E6FC08E6FD08E6FE08E6FF22ECF608ED2C
:10023300F608EEF608EFF622EF2406F5398F3CE5D3
:100243003CC395395033E53BC39406501BAD3CE4A6
:10025300FF120003E4FCFDFEE53B25E025E0243D21
:10026300F812022F053B8003E4F53BE4F53A053A27
:10027300E53AB496F9053C80C622EF2406F5398F9A
:100283003CE53CC395395031E53BC394065019E531
:100293003B25E025E02421F8120223AB07AD3CE423
:1002A300FF1202E4053B8003E4F53BE4F53A053A2B
:1002B300E53AB496F9053C80C82220812375E340D2
:1002C300C282E4F5130513E513B4FFF9D282308239
:1002D300FDE4F5130513E513B40AF9E4F5E380DA55
:1002E300222000FDD2007510A0C204D202C201D2A6
:1002F300038F118D128B08750A00750B00750C089E
:10030300750901D2C52285A71612038E1203AA12FC
:1003130003AE12002B12035712039512039C120310
:10032300A38516A722E4F514F5151203441202BDA2
:10033300120309D2AF7F0512027D7F0512023B80B3
:10034300FE85A71612036A12037412038712037E33
:100353008516A722E59154045391FB759338759242
:100363009E439104429122E4F5A77597DE7597ADFC
:100373002275A60875A72075CC0822E4F5A9E5A97E
:1003830030E7FB22E4F5A775E34022E4F5A775D433
:10039300FF227589224388502253C1FC43C1DD22C9
:0F03A30075E68175A8802275D5032275E10422C5
:00000001FF
