:020000040000FA
:100000000203822000FDD2007510A0C204D202D2E9
:1000100001D2038F118D12750D00750E00750F72D0
:10002000750901D2C52000FDAF7222AF885388AF99
:10003000EF5440FEEF54104E4288220201B420815A
:100040002375E340C282E4F5130513E513B4FFF909
:10005000D2823082FDE4F5130513E513B40AF9E406
:10006000F5E380DA2253C17F43C18053917FC20000
:0200700032223A
:10007300020065E709F608DFFA8046E709F208DFC0
:10008300FA803E88828C83E709F0A3DFFA8032E3AB
:1000930009F608DFFA8078E309F208DFFA8070884E
:1000A300828C83E309F0A3DFFA806489828A83E088
:1000B300A3F608DFFA805889828A83E0A3F208DF77
:1000C300FA804C80D280FA80C680D4806980F28026
:1000D30033801080A680EA809A80A880DA80E2804C
:1000E300CA803389828A83ECFAE493A3C8C582C8A1
:1000F300CCC583CCF0A3C8C582C8CCC583CCDFE90B
:10010300DEE7800D89828A83E493A3F608DFF9ECA6
:10011300FAA9F0EDFB2289828A83ECFAE0A3C8C531
:1001230082C8CCC583CCF0A3C8C582C8CCC583CC58
:10013300DFEADEE880DB89828A83E493A3F208DFC7
:10014300F980CC88F0EF60010E4E60C388F0ED2497
:1001530002B4040050B9F582EB2402B4040050AF9A
:1001630023234582239000C673BB010689828A83B9
:10017300E0225002E722BBFE02E32289828A83E463
:100183009322BB010689828A83F0225002F722BBA5
:10019300FE01F322EB9FF5F0EA9E42F0E99D42F067
:1001A300E89C45F022ECF608EDF608EEF608EFF6CB
:1001B30022C0E0C083C082C0D075D000C001C0029D
:1001C300C003E5C054F02480700302025024C060D1
:1001D3001B24E060030202818510C253C2FEA20405
:1001E300E43342C2C2C575140002028330C15330E6
:1001F3000607D2C5C206020283300219E515600E56
:10020300C2028512C2300178D206D20480728511EF
:10021300C20515806B200468E514C39509501AAB19
:100223000AAA0BA90C12016CF5C27401250CF50C7A
:10023300E4350BF50B05148047D2C4C200751500D5
:10024300803E300304D2C58037D2058033E514C322
:100253009509501AAB0DAA0EA90FE5C212018574B8
:1002630001250FF50FE4350EF50E0514D2C1E51483
:10027300B5090DC200C2C1751500D2C48002D205F2
:1002830030051053C17F43C180C2C5C2C4C2C1C2BD
:1002930000C205C2C0D003D002D001D0D0D082D0DA
:1002A30083D0E032E4F539783A7C00FD7BFF7A04B1
:1002B30079A8FE7F1812014612043012003E120480
:1002C30011D2AFE4FDFF120003E48F24F523F522DE
:1002D300F5217D03FF120003E48F2CF52BF52AF59E
:1002E300297D05FF120003E48F34F533F532F53130
:1002F3007D06FF120003E48F38F537F536F535F543
:100303006DF56CF56BF56AE47F06FEFDFCAB6DAA3B
:100313006CA96BA86AC31201975062AD6DE4FF121A
:100323000003E4FCFDFEE56D25E025E02452F81210
:1003330001A8E4F571F570F56FF56EE47F96FEFDA7
:10034300FCAB71AA70A96FA86EC31201975017E591
:10035300712401F571E43570F570E4356FF56FE4E0
:10036300356EF56E80D5E56D2401F56DE4356CF5DC
:100373006CE4356BF56BE4356AF56A808A80FE12AE
:100383000071787FE4F6D8FD7581720203CC020216
:10039300A7E493A3F8E493A34003F68001F208DFF4
:1003A300F48029E493A3F85407240CC8C333C4543A
:1003B3000F4420C8834004F456800146F6DFE480EE
:1003C3000B010204081020408090046AE47E01932C
:1003D30060BCA3FF543F30E509541FFEE493A360C0
:1003E300010ECF54C025E060A840B8E493A3FAE41B
:1003F30093A3F8E493A3C8C582C8CAC583CAF0A36C
:10040300C8C582C8CAC583CADFE9DEE780BE85A73F
:10041300721204841204A01204A412002B120443C7
:1004230012048B1204921204998572A72285A77273
:1004330012045612046012047D1204748572A722FA
:10044300E59154045391FB75933875929E4391043F
:10045300429122E4F5A77597DE7597AD2275A6083C
:1004630075A72075CC0822C105011500C106C1007E
:1004730000E4F5A9E5A930E7FB22E4F5A775E3401D
:1004830022E4F5A775D4FF227589224388502253AD
:10049300C1FC43C1DD2275E68175A8802275D503B1
:1004A3002275E10422000000020000001200000097
:0D04B3000300000019000000FF000000031E
:00000001FF
